{"abi":[{"type":"function","name":"probeBalance","inputs":[{"name":"token","type":"address","internalType":"address"},{"name":"expectedAmount","type":"uint256","internalType":"uint256"}],"outputs":[{"name":"ok","type":"bool","internalType":"bool"},{"name":"balance","type":"uint256","internalType":"uint256"}],"stateMutability":"view"},{"type":"function","name":"probeTransferToPool","inputs":[{"name":"token","type":"address","internalType":"address"},{"name":"pool","type":"address","internalType":"address"},{"name":"amount","type":"uint256","internalType":"uint256"}],"outputs":[{"name":"received","type":"uint256","internalType":"uint256"}],"stateMutability":"nonpayable"},{"type":"function","name":"simulateTransferTax","inputs":[{"name":"token","type":"address","internalType":"address"},{"name":"recipient","type":"address","internalType":"address"},{"name":"amount","type":"uint256","internalType":"uint256"}],"outputs":[{"name":"sent","type":"uint256","internalType":"uint256"},{"name":"received","type":"uint256","internalType":"uint256"}],"stateMutability":"nonpayable"}],"bytecode":{"object":"0x608060405234801561000f575f80fd5b5061050d8061001d5f395ff3fe608060405234801561000f575f80fd5b506004361061003f575f3560e01c80634cd576db14610043578063a1486f1b14610070578063aa11421314610091575b5f80fd5b610056610051366004610414565b6100bb565b604080519283526020830191909152015b60405180910390f35b61008361007e366004610414565b610225565b604051908152602001610067565b6100a461009f36600461044d565b610384565b604080519215158352602083019190915201610067565b6040516370a0823160e01b81526001600160a01b0383811660048301525f9182918291908716906370a0823190602401602060405180830381865afa158015610106573d5f803e3d5ffd5b505050506040513d601f19601f8201168201806040525081019061012a9190610475565b60405163a9059cbb60e01b81526001600160a01b038781166004830152602482018790529192509087169063a9059cbb906044016020604051808303815f875af115801561017a573d5f803e3d5ffd5b505050506040513d601f19601f8201168201806040525081019061019e919061048c565b506040516370a0823160e01b81526001600160a01b0386811660048301525f91908816906370a0823190602401602060405180830381865afa1580156101e6573d5f803e3d5ffd5b505050506040513d601f19601f8201168201806040525081019061020a9190610475565b859450905061021982826104b2565b92505050935093915050565b6040516370a0823160e01b81526001600160a01b0383811660048301525f9182918616906370a0823190602401602060405180830381865afa15801561026d573d5f803e3d5ffd5b505050506040513d601f19601f820116820180604052508101906102919190610475565b60405163a9059cbb60e01b81526001600160a01b038681166004830152602482018690529192509086169063a9059cbb906044016020604051808303815f875af11580156102e1573d5f803e3d5ffd5b505050506040513d601f19601f82011682018060405250810190610305919061048c565b506040516370a0823160e01b81526001600160a01b0385811660048301528291908716906370a0823190602401602060405180830381865afa15801561034d573d5f803e3d5ffd5b505050506040513d601f19601f820116820180604052508101906103719190610475565b61037b91906104b2565b95945050505050565b6040516370a0823160e01b81523060048201525f9081906001600160a01b038516906370a0823190602401602060405180830381865afa1580156103ca573d5f803e3d5ffd5b505050506040513d601f19601f820116820180604052508101906103ee9190610475565b928314949293505050565b80356001600160a01b038116811461040f575f80fd5b919050565b5f805f60608486031215610426575f80fd5b61042f846103f9565b925061043d602085016103f9565b9150604084013590509250925092565b5f806040838503121561045e575f80fd5b610467836103f9565b946020939093013593505050565b5f60208284031215610485575f80fd5b5051919050565b5f6020828403121561049c575f80fd5b815180151581146104ab575f80fd5b9392505050565b818103818111156104d157634e487b7160e01b5f52601160045260245ffd5b9291505056fea2646970667358221220746b502e95c4eb93e26894e2db6c1fe790905d83dd9f2f3bfe16c0f73120126864736f6c63430008180033","linkReferences":{}},"methodIdentifiers":{"probeBalance(address,uint256)":"aa114213","probeTransferToPool(address,address,uint256)":"a1486f1b","simulateTransferTax(address,address,uint256)":"4cd576db"},"id":0}