{"abi":[{"type":"constructor","inputs":[{"name":"initialSupply","type":"uint256","internalType":"uint256"},{"name":"_feeBps","type":"uint256","internalType":"uint256"},{"name":"_feeSink","type":"address","internalType":"address"}],"stateMutability":"nonpayable"},{"type":"function","name":"allowance","inputs":[{"name":"","type":"address","internalType":"address"},{"name":"","type":"address","internalType":"address"}],"outputs":[{"name":"","type":"uint256","internalType":"uint256"}],"stateMutability":"view"},{"type":"function","name":"approve","inputs":[{"name":"spender","type":"address","internalType":"address"},{"name":"amount","type":"uint256","internalType":"uint256"}],"outputs":[{"name":"","type":"bool","internalType":"bool"}],"stateMutability":"nonpayable"},{"type":"function","name":"balanceOf","inputs":[{"name":"","type":"address","internalType":"address"}],"outputs":[{"name":"","type":"uint256","internalType":"uint256"}],"stateMutability":"view"},{"type":"function","name":"decimals","inputs":[],"outputs":[{"name":"","type":"uint8","internalType":"uint8"}],"stateMutability":"view"},{"type":"function","name":"feeBps","inputs":[],"outputs":[{"name":"","type":"uint256","internalType":"uint256"}],"stateMutability":"view"},{"type":"function","name":"feeSink","inputs":[],"outputs":[{"name":"","type":"address","internalType":"address"}],"stateMutability":"view"},{"type":"function","name":"name","inputs":[],"outputs":[{"name":"","type":"string","internalType":"string"}],"stateMutability":"view"},{"type":"function","name":"owner","inputs":[],"outputs":[{"name":"","type":"address","internalType":"address"}],"stateMutability":"view"},{"type":"function","name":"symbol","inputs":[],"outputs":[{"name":"","type":"string","internalType":"string"}],"stateMutability":"view"},{"type":"function","name":"totalSupply","inputs":[],"outputs":[{"name":"","type":"uint256","internalType":"uint256"}],"stateMutability":"view"},{"type":"function","name":"transfer","inputs":[{"name":"to","type":"address","internalType":"address"},{"name":"amount","type":"uint256","internalType":"uint256"}],"outputs":[{"name":"","type":"bool","internalType":"bool"}],"stateMutability":"nonpayable"},{"type":"function","name":"transferFrom","inputs":[{"name":"from","type":"address","internalType":"address"},{"name":"to","type":"address","internalType":"address"},{"name":"amount","type":"uint256","internalType":"uint256"}],"outputs":[{"name":"","type":"bool","internalType":"bool"}],"stateMutability":"nonpayable"},{"type":"event","name":"Approval","inputs":[{"name":"owner","type":"address","indexed":true,"internalType":"address"},{"name":"spender","type":"address","indexed":true,"internalType":"address"},{"name":"value","type":"uint256","indexed":false,"internalType":"uint256"}],"anonymous":false},{"type":"event","name":"Transfer","inputs":[{"name":"from","type":"address","indexed":true,"internalType":"address"},{"name":"to","type":"address","indexed":true,"internalType":"address"},{"name":"value","type":"uint256","indexed":false,"internalType":"uint256"}],"anonymous":false}],"bytecode":{"object":"0x60e060405234801561000f575f80fd5b506040516108de3803806108de83398101604081905261002e91610093565b60808290526001600160a01b03811660a0523360c08190525f848155818152600160209081526040808320879055518681527fddf252ad1be2c89b69c2b068fc378daa952ba7f163c4a11628f55a4df523b3ef910160405180910390a35050506100d5565b5f805f606084860312156100a5575f80fd5b83516020850151604086015191945092506001600160a01b03811681146100ca575f80fd5b809150509250925092565b60805160a05160c0516107c361011b5f395f81816101ee015261040f01525f8181610190015281816104fe015261054401525f818161014f015261044e01526107c35ff3fe608060405234801561000f575f80fd5b50600436106100b1575f3560e01c80634b38474d1161006e5780634b38474d1461018b57806370a08231146101ca5780638da5cb5b146101e957806395d89b4114610210578063a9059cbb14610233578063dd62ed3e14610246575f80fd5b806306fdde03146100b5578063095ea7b3146100fe57806318160ddd1461012157806323b872dd1461013757806324a9d8531461014a578063313ce56714610171575b5f80fd5b6100e860405180604001604052806014815260200173466565204f6e205472616e73666572204d6f636b60601b81525081565b6040516100f59190610604565b60405180910390f35b61011161010c36600461066b565b610270565b60405190151581526020016100f5565b6101295f5481565b6040519081526020016100f5565b610111610145366004610693565b6102dc565b6101297f000000000000000000000000000000000000000000000000000000000000000081565b610179601281565b60405160ff90911681526020016100f5565b6101b27f000000000000000000000000000000000000000000000000000000000000000081565b6040516001600160a01b0390911681526020016100f5565b6101296101d83660046106cc565b60016020525f908152604090205481565b6101b27f000000000000000000000000000000000000000000000000000000000000000081565b6100e860405180604001604052806004815260200163464f544d60e01b81525081565b61011161024136600461066b565b610399565b6101296102543660046106ec565b600260209081525f928352604080842090915290825290205481565b335f8181526002602090815260408083206001600160a01b038716808552925280832085905551919290917f8c5be1e5ebec7d5bd14f71427d1e84f3dd0314c0f7b2291e5b200ac8c7c3b925906102ca9086815260200190565b60405180910390a35060015b92915050565b6001600160a01b0383165f9081526002602090815260408083203384529091528120548281101561034d5760405162461bcd60e51b8152602060048201526016602482015275696e73756666696369656e7420616c6c6f77616e636560501b60448201526064015b60405180910390fd5b5f1981146103835761035f8382610731565b6001600160a01b0386165f9081526002602090815260408083203384529091529020555b61038e8585856103ae565b506001949350505050565b5f6103a53384846103ae565b50600192915050565b6001600160a01b0383165f9081526001602052604090205481111561040c5760405162461bcd60e51b8152602060048201526014602482015273696e73756666696369656e742062616c616e636560601b6044820152606401610344565b5f7f00000000000000000000000000000000000000000000000000000000000000006001600160a01b0316846001600160a01b031614610482576127106104737f000000000000000000000000000000000000000000000000000000000000000084610744565b61047d919061075b565b610484565b5f5b90505f6104918284610731565b6001600160a01b0386165f908152600160205260408120805492935085929091906104bd908490610731565b90915550506001600160a01b0384165f90815260016020526040812080548392906104e990849061077a565b909155505081156105b0576001600160a01b037f0000000000000000000000000000000000000000000000000000000000000000165f908152600160205260408120805484929061053b90849061077a565b925050819055507f00000000000000000000000000000000000000000000000000000000000000006001600160a01b0316856001600160a01b03167fddf252ad1be2c89b69c2b068fc378daa952ba7f163c4a11628f55a4df523b3ef846040516105a791815260200190565b60405180910390a35b836001600160a01b0316856001600160a01b03167fddf252ad1be2c89b69c2b068fc378daa952ba7f163c4a11628f55a4df523b3ef836040516105f591815260200190565b60405180910390a35050505050565b5f602080835283518060208501525f5b8181101561063057858101830151858201604001528201610614565b505f604082860101526040601f19601f8301168501019250505092915050565b80356001600160a01b0381168114610666575f80fd5b919050565b5f806040838503121561067c575f80fd5b61068583610650565b946020939093013593505050565b5f805f606084860312156106a5575f80fd5b6106ae84610650565b92506106bc60208501610650565b9150604084013590509250925092565b5f602082840312156106dc575f80fd5b6106e582610650565b9392505050565b5f80604083850312156106fd575f80fd5b61070683610650565b915061071460208401610650565b90509250929050565b634e487b7160e01b5f52601160045260245ffd5b818103818111156102d6576102d661071d565b80820281158282048414176102d6576102d661071d565b5f8261077557634e487b7160e01b5f52601260045260245ffd5b500490565b808201808211156102d6576102d661071d56fea264697066735822122033f03670aed4ae66bdf1a71c372ec906d103180c96b1913f1631ac1cfaa9402664736f6c63430008180033","linkReferences":{}},"methodIdentifiers":{"allowance(address,address)":"dd62ed3e","approve(address,uint256)":"095ea7b3","balanceOf(address)":"70a08231","decimals()":"313ce567","feeBps()":"24a9d853","feeSink()":"4b38474d","name()":"06fdde03","owner()":"8da5cb5b","symbol()":"95d89b41","totalSupply()":"18160ddd","transfer(address,uint256)":"a9059cbb","transferFrom(address,address,uint256)":"23b872dd"},"id":1}