{"abi":[{"type":"constructor","inputs":[{"name":"initialSupply","type":"uint256","internalType":"uint256"}],"stateMutability":"nonpayable"},{"type":"function","name":"allowance","inputs":[{"name":"","type":"address","internalType":"address"},{"name":"","type":"address","internalType":"address"}],"outputs":[{"name":"","type":"uint256","internalType":"uint256"}],"stateMutability":"view"},{"type":"function","name":"approve","inputs":[{"name":"spender","type":"address","internalType":"address"},{"name":"amount","type":"uint256","internalType":"uint256"}],"outputs":[{"name":"","type":"bool","internalType":"bool"}],"stateMutability":"nonpayable"},{"type":"function","name":"balanceOf","inputs":[{"name":"","type":"address","internalType":"address"}],"outputs":[{"name":"","type":"uint256","internalType":"uint256"}],"stateMutability":"view"},{"type":"function","name":"decimals","inputs":[],"outputs":[{"name":"","type":"uint8","internalType":"uint8"}],"stateMutability":"view"},{"type":"function","name":"name","inputs":[],"outputs":[{"name":"","type":"string","internalType":"string"}],"stateMutability":"view"},{"type":"function","name":"owner","inputs":[],"outputs":[{"name":"","type":"address","internalType":"address"}],"stateMutability":"view"},{"type":"function","name":"pair","inputs":[],"outputs":[{"name":"","type":"address","internalType":"address"}],"stateMutability":"view"},{"type":"function","name":"setPair","inputs":[{"name":"_pair","type":"address","internalType":"address"}],"outputs":[],"stateMutability":"nonpayable"},{"type":"function","name":"symbol","inputs":[],"outputs":[{"name":"","type":"string","internalType":"string"}],"stateMutability":"view"},{"type":"function","name":"totalSupply","inputs":[],"outputs":[{"name":"","type":"uint256","internalType":"uint256"}],"stateMutability":"view"},{"type":"function","name":"transfer","inputs":[{"name":"to","type":"address","internalType":"address"},{"name":"amount","type":"uint256","internalType":"uint256"}],"outputs":[{"name":"","type":"bool","internalType":"bool"}],"stateMutability":"nonpayable"},{"type":"function","name":"transferFrom","inputs":[{"name":"from","type":"address","internalType":"address"},{"name":"to","type":"address","internalType":"address"},{"name":"amount","type":"uint256","internalType":"uint256"}],"outputs":[{"name":"","type":"bool","internalType":"bool"}],"stateMutability":"nonpayable"},{"type":"event","name":"Approval","inputs":[{"name":"owner","type":"address","indexed":true,"internalType":"address"},{"name":"spender","type":"address","indexed":true,"internalType":"address"},{"name":"value","type":"uint256","indexed":false,"internalType":"uint256"}],"anonymous":false},{"type":"event","name":"Transfer","inputs":[{"name":"from","type":"address","indexed":true,"internalType":"address"},{"name":"to","type":"address","indexed":true,"internalType":"address"},{"name":"value","type":"uint256","indexed":false,"internalType":"uint256"}],"anonymous":false}],"bytecode":{"object":"0x60a060405234801561000f575f80fd5b506040516107f33803806107f383398101604081905261002e9161007f565b3360808190525f828155818152600260209081526040808320859055518481527fddf252ad1be2c89b69c2b068fc378daa952ba7f163c4a11628f55a4df523b3ef910160405180910390a350610096565b5f6020828403121561008f575f80fd5b5051919050565b6080516107376100bc5f395f818161019601528181610377015261048001526107375ff3fe608060405234801561000f575f80fd5b50600436106100b1575f3560e01c80638187f5161161006e5780638187f5161461017c5780638da5cb5b1461019157806395d89b41146101d0578063a8aa1b31146101f3578063a9059cbb14610206578063dd62ed3e14610219575f80fd5b806306fdde03146100b5578063095ea7b3146100f757806318160ddd1461011a57806323b872dd14610130578063313ce5671461014357806370a082311461015d575b5f80fd5b6100e16040518060400160405280600d81526020016c486f6e6579706f74204d6f636b60981b81525081565b6040516100ee91906105ae565b60405180910390f35b61010a610105366004610615565b610243565b60405190151581526020016100ee565b6101225f5481565b6040519081526020016100ee565b61010a61013e36600461063d565b6102af565b61014b601281565b60405160ff90911681526020016100ee565b61012261016b366004610676565b60026020525f908152604090205481565b61018f61018a366004610676565b61036c565b005b6101b87f000000000000000000000000000000000000000000000000000000000000000081565b6040516001600160a01b0390911681526020016100ee565b6100e160405180604001604052806004815260200163121413d560e21b81525081565b6001546101b8906001600160a01b031681565b61010a610214366004610615565b6103f3565b610122610227366004610696565b600360209081525f928352604080842090915290825290205481565b335f8181526003602090815260408083206001600160a01b038716808552925280832085905551919290917f8c5be1e5ebec7d5bd14f71427d1e84f3dd0314c0f7b2291e5b200ac8c7c3b9259061029d9086815260200190565b60405180910390a35060015b92915050565b6001600160a01b0383165f908152600360209081526040808320338452909152812054828110156103205760405162461bcd60e51b8152602060048201526016602482015275696e73756666696369656e7420616c6c6f77616e636560501b60448201526064015b60405180910390fd5b5f1981146103565761033283826106db565b6001600160a01b0386165f9081526003602090815260408083203384529091529020555b610361858585610408565b506001949350505050565b336001600160a01b037f000000000000000000000000000000000000000000000000000000000000000016146103d15760405162461bcd60e51b815260206004820152600a60248201526937b7363c9037bbb732b960b11b6044820152606401610317565b600180546001600160a01b0319166001600160a01b0392909216919091179055565b5f6103ff338484610408565b50600192915050565b6001600160a01b0383165f908152600260205260409020548111156104665760405162461bcd60e51b8152602060048201526014602482015273696e73756666696369656e742062616c616e636560601b6044820152606401610317565b6001546001600160a01b0383811691161480156104b557507f00000000000000000000000000000000000000000000000000000000000000006001600160a01b0316836001600160a01b031614155b156105025760405162461bcd60e51b815260206004820152601860248201527f686f6e6579706f743a2073656c6c732064697361626c656400000000000000006044820152606401610317565b6001600160a01b0383165f90815260026020526040812080548392906105299084906106db565b90915550506001600160a01b0382165f90815260026020526040812080548392906105559084906106ee565b92505081905550816001600160a01b0316836001600160a01b03167fddf252ad1be2c89b69c2b068fc378daa952ba7f163c4a11628f55a4df523b3ef836040516105a191815260200190565b60405180910390a3505050565b5f602080835283518060208501525f5b818110156105da578581018301518582016040015282016105be565b505f604082860101526040601f19601f8301168501019250505092915050565b80356001600160a01b0381168114610610575f80fd5b919050565b5f8060408385031215610626575f80fd5b61062f836105fa565b946020939093013593505050565b5f805f6060848603121561064f575f80fd5b610658846105fa565b9250610666602085016105fa565b9150604084013590509250925092565b5f60208284031215610686575f80fd5b61068f826105fa565b9392505050565b5f80604083850312156106a7575f80fd5b6106b0836105fa565b91506106be602084016105fa565b90509250929050565b634e487b7160e01b5f52601160045260245ffd5b818103818111156102a9576102a96106c7565b808201808211156102a9576102a96106c756fea2646970667358221220aa1460fef1682ddaa65efb9064ccdb5e796f78eb189eff5f7fea0e04789a008964736f6c63430008180033","linkReferences":{}},"methodIdentifiers":{"allowance(address,address)":"dd62ed3e","approve(address,uint256)":"095ea7b3","balanceOf(address)":"70a08231","decimals()":"313ce567","name()":"06fdde03","owner()":"8da5cb5b","pair()":"a8aa1b31","setPair(address)":"8187f516","symbol()":"95d89b41","totalSupply()":"18160ddd","transfer(address,uint256)":"a9059cbb","transferFrom(address,address,uint256)":"23b872dd"},"id":2}